S0150000456E636F646564206D6F746F722E737265630C
S11300000C942A000C94CD000C94F0000C9447003E
S11300100C9447000C9447000C9447000C94470040
S11300200C9447000C9447000C9447000C94470030
S11300300C9447000C9447000C9447000C94470020
S11300400C9447000C9447000C9447000C94470010
S11300500C94470011241FBECFE5D8E0DEBFCDBF0E
S113006010E0A0E6B0E0ECE8F3E002C005900D92E9
S1130070A037B107D9F720E0A0E7B0E001C01D9296
S1130080A237B207E1F70E9456010C94C4010C9404
S1130090000092B39F70282F207F922B92BB92B3C3
S11300A09E7F92BB92B3926092BB000092B39D7FFD
S11300B092BB32E43A95F1F700C022B330E1839F5A
S11300C0C0011124922F9F70892B82BB82B382605E
S11300D082BB000082B38D7F82BB83EF91E00197E6
S11300E0F1F700C00000089592B39F70282F207F7D
S11300F0922B92BB92B3916092BB92B3926092BBEB
S1130100000092B39D7F92BB32E43A95F1F700C0B0
S113011022B330E1839FC0011124922F9F70892B59
S113012082BB82B3826082BB000082B38D7F82BBBC
S113013083EF91E00197F1F700C0000008958FEF7D
S113014081BB87E893E10197F1F700C0000082E0EA
S11301500E94490088E20E9449008CE00E94490004
S113016086E00E94490081E00E94490008950F93AF
S11301701F93CF93DF938C01C0E0D0E003C00E94B3
S113018074002196F801EC0FFD1F80818111F7CFD7
S1130190DF91CF911F910F9108951F920F920FB687
S11301A00F9211248F939F93839B0AC080917000B8
S11301B0909171000196909371008093700009C032
S11301C080917000909171000197909371008093D9
S11301D070009F918F910F900FBE0F901F901895F4
S11301E01F920F920FB60F9211248F939F93829BAD
S11301F00AC08091700090917100019690937100F3
S11302008093700009C080917000909171000197F3
S113021090937100809370009F918F910F900FBE07
S11302200F901F90189587B38E6087BB8AE685BDB3
S113023013BC089583BD88B3846088BB88B38D7F65
S113024088BB089580E487B986E886B9089597B194
S1130250987F8770892B87B986B1806486B936996F
S1130260FECF84B195B108950F931F93CF93DF937D
S1130270CDB7DEB760970FB6F894DEBF0FBECDBF23
S11302804AE050E08E010F5F1F4FB8010E948401C5
S1130290802F0E94740060960FB6F894DEBF0FBEE4
S11302A0CDBFDF91CF911F910F9108950E949F00C0
S11302B080E690E00E94B70080EC0E94490082ED45
S11302C094E00E9434010E9413010E94220181B330
S11302D0837F81BB85B7856085BF8BB7806C8BBFFF
S11302E0789480E00E942701969587959695879546
S11302F00E941A012FE986E891E021508040904045
S1130300E1F700C00000EDCF4532510520F4423042
S113031010F00C948F01FB011082CB010895BB27D0
S11303204A3031F4992322F4BDE2909581959F4F90
S11303300C949B01BB27FB015527AA27880F991F03
S1130340AA1FA41710F0A41B83955051B9F7A05D00
S1130350AA3308F0A95DA193009779F7B111B1937D
S11303601192CB010C94B401DC01FC01672F719153
S11303707723E1F7329704C07C916D937083629187
S10F0380AE17BF07C8F30895F894FFCF30
S113038C4D53502049493A454D54203332303200B4
S9030000FC
